:020000020000FC
:100000001FC01DC01CC01BC01AC019C018C017C01B
:1000100016C090C097C09EC012C011C010C00FC0C3
:100020000EC080080000000000000000000000007A
:10003000000000000000000000000400000018950F
:1000400001E00EBF0DE20DBFFF27DD27BB2700EA51
:100050000BBB0FED0ABB01E008BB0EE007BB00E2E3
:1000600005BF03E000B900E20BBF01E000BD07E0FF
:1000700009BF03E003BFA0E60AE00C9305E07AD0D5
:10008000E2E2C0E609910E3049F473E00991073EBF
:1000900029F47A95DAF70881073E09F0E0E3CFE921
:1000A0000DE0759179930A95E2F70AE0ACE7FFBBA2
:1000B0000EBBE09A7DB37E930A95CAF70AE20E93CF
:1000C00005E058D0A5E70BE20C9305E053D0AAE772
:1000D00005E20C9301E04ED0A0E70EE00C9301E3A3
:1000E0000E9301E047D0A0E700E20C9302E30E93E9
:1000F00001E040D0A0E70BE00C9300E20E9301E09A
:1001000039D07FE978948895B099FDCFA72FA19534
:10011000AA9501E60C930EE02DD0A72F719500E76C
:100120000C9307E20E9301E025D002EE0E9300E05F
:1001300021D0E9CF0FB669916F7069BB699166BF35
:100140000FBE18950FB66191667066BB61916CBF6A
:100150000FBE18950FB6D898D998DA98DB98C19841
:10016000C298C72FE72FE75F699166BF61916CBFA7
:100170000FBE1895DF9847E03C9159B350725195E6
:10018000331F10F0DE9803C0DE9A00000000DC9AF6
:1001900000000000DC984A9582F73D930A955AF7D3
:0401A000DF9A089545
:00000001FF
